{
  "contractName": "Sensors",
  "abi": [
    {
      "inputs": [
        {
          "internalType": "uint256",
          "name": "",
          "type": "uint256"
        }
      ],
      "name": "humidity",
      "outputs": [
        {
          "internalType": "int256",
          "name": "",
          "type": "int256"
        }
      ],
      "stateMutability": "view",
      "type": "function",
      "constant": true
    },
    {
      "inputs": [],
      "name": "owner",
      "outputs": [
        {
          "internalType": "address",
          "name": "",
          "type": "address"
        }
      ],
      "stateMutability": "view",
      "type": "function",
      "constant": true
    },
    {
      "inputs": [
        {
          "internalType": "uint256",
          "name": "",
          "type": "uint256"
        }
      ],
      "name": "temperature",
      "outputs": [
        {
          "internalType": "int256",
          "name": "",
          "type": "int256"
        }
      ],
      "stateMutability": "view",
      "type": "function",
      "constant": true
    },
    {
      "inputs": [
        {
          "internalType": "int256",
          "name": "tempVal",
          "type": "int256"
        }
      ],
      "name": "addTemperature",
      "outputs": [],
      "stateMutability": "payable",
      "type": "function",
      "payable": true
    },
    {
      "inputs": [
        {
          "internalType": "int256",
          "name": "humVal",
          "type": "int256"
        }
      ],
      "name": "addHumidity",
      "outputs": [],
      "stateMutability": "payable",
      "type": "function",
      "payable": true
    },
    {
      "inputs": [],
      "name": "humidityLastVal",
      "outputs": [
        {
          "internalType": "int256",
          "name": "hLast",
          "type": "int256"
        }
      ],
      "stateMutability": "view",
      "type": "function",
      "constant": true
    },
    {
      "inputs": [],
      "name": "temperatureLastVal",
      "outputs": [
        {
          "internalType": "int256",
          "name": "tLast",
          "type": "int256"
        }
      ],
      "stateMutability": "view",
      "type": "function",
      "constant": true
    },
    {
      "inputs": [],
      "name": "humidityAvgVal",
      "outputs": [
        {
          "internalType": "int256",
          "name": "hAvg",
          "type": "int256"
        },
        {
          "internalType": "uint256",
          "name": "numOfRecords",
          "type": "uint256"
        }
      ],
      "stateMutability": "view",
      "type": "function",
      "constant": true
    },
    {
      "inputs": [],
      "name": "temperatureAvgVal",
      "outputs": [
        {
          "internalType": "int256",
          "name": "tAvg",
          "type": "int256"
        },
        {
          "internalType": "uint256",
          "name": "numOfRecords",
          "type": "uint256"
        }
      ],
      "stateMutability": "view",
      "type": "function",
      "constant": true
    }
  ],
  "bytecode": "0x6080604052336000806101000a81548173ffffffffffffffffffffffffffffffffffffffff021916908373ffffffffffffffffffffffffffffffffffffffff16021790555034801561005057600080fd5b506106fb806100606000396000f3fe6080604052600436106100865760003560e01c806397919b641161005957806397919b64146101295780639c28091414610145578063afdb52c814610171578063c57868dc146101ae578063f13ea090146101eb57610086565b8063065639561461008b5780630d3da251146100b65780630e617c0f146100e25780638da5cb5b146100fe575b600080fd5b34801561009757600080fd5b506100a0610216565b6040516100ad9190610437565b60405180910390f35b3480156100c257600080fd5b506100cb61024d565b6040516100d992919061046b565b60405180910390f35b6100fc60048036038101906100f791906104c5565b6102b3565b005b34801561010a57600080fd5b506101136102e5565b6040516101209190610533565b60405180910390f35b610143600480360381019061013e91906104c5565b610309565b005b34801561015157600080fd5b5061015a61033b565b60405161016892919061046b565b60405180910390f35b34801561017d57600080fd5b506101986004803603810190610193919061057a565b6103a1565b6040516101a59190610437565b60405180910390f35b3480156101ba57600080fd5b506101d560048036038101906101d0919061057a565b6103c5565b6040516101e29190610437565b60405180910390f35b3480156101f757600080fd5b506102006103e9565b60405161020d9190610437565b60405180910390f35b60006002600160028054905061022c91906105d6565b8154811061023d5761023c61060a565b5b9060005260206000200154905090565b6000806000809250600090505b6002805490508110156102a6576002818154811061027b5761027a61060a565b5b9060005260206000200154836102919190610639565b9250808061029e9061067d565b91505061025a565b6002805490509150509091565b600081905060028190806001815401808255809150506001900390600052602060002001600090919091909150555050565b60008054906101000a900473ffffffffffffffffffffffffffffffffffffffff1681565b600081905060018190806001815401808255809150506001900390600052602060002001600090919091909150555050565b6000806000809250600090505b60018054905081101561039457600181815481106103695761036861060a565b5b90600052602060002001548361037f9190610639565b9250808061038c9061067d565b915050610348565b6001805490509150509091565b600181815481106103b157600080fd5b906000526020600020016000915090505481565b600281815481106103d557600080fd5b906000526020600020016000915090505481565b600060018080805490506103fd91906105d6565b8154811061040e5761040d61060a565b5b9060005260206000200154905090565b6000819050919050565b6104318161041e565b82525050565b600060208201905061044c6000830184610428565b92915050565b6000819050919050565b61046581610452565b82525050565b60006040820190506104806000830185610428565b61048d602083018461045c565b9392505050565b600080fd5b6104a28161041e565b81146104ad57600080fd5b50565b6000813590506104bf81610499565b92915050565b6000602082840312156104db576104da610494565b5b60006104e9848285016104b0565b91505092915050565b600073ffffffffffffffffffffffffffffffffffffffff82169050919050565b600061051d826104f2565b9050919050565b61052d81610512565b82525050565b60006020820190506105486000830184610524565b92915050565b61055781610452565b811461056257600080fd5b50565b6000813590506105748161054e565b92915050565b6000602082840312156105905761058f610494565b5b600061059e84828501610565565b91505092915050565b7f4e487b7100000000000000000000000000000000000000000000000000000000600052601160045260246000fd5b60006105e182610452565b91506105ec83610452565b9250828203905081811115610604576106036105a7565b5b92915050565b7f4e487b7100000000000000000000000000000000000000000000000000000000600052603260045260246000fd5b60006106448261041e565b915061064f8361041e565b925082820190508281121560008312168382126000841215161715610677576106766105a7565b5b92915050565b600061068882610452565b91507fffffffffffffffffffffffffffffffffffffffffffffffffffffffffffffffff82036106ba576106b96105a7565b5b60018201905091905056fea264697066735822122045e27bfbd6013c6db72f0552fc8df5b320d26623c8b95c9eefd6029569a4b2fb64736f6c63430008110033",
  "immutableReferences": {},
  "source": "// SPDX-License-Identifier: MIT\r\npragma solidity ^0.8.15;\r\n\r\ncontract Sensors {\r\n    address public owner = msg.sender;\r\n    \r\n    int256[] public humidity;\r\n    int256[] public temperature;\r\n\r\n    //function for add temper value\r\n\r\n    function addTemperature(int256 tempVal) public payable {\r\n      int256 val = int256(tempVal);\r\n\t\t  temperature.push(val);\r\n    }\r\n\r\n    //function for add humidity value \r\n\r\n    function addHumidity(int256 humVal) public payable {\r\n      int256 val = int256(humVal); \r\n\t\t  humidity.push(val);\r\n    }\r\n\r\n    //latest humidity value\r\n\r\n    function humidityLastVal() public view returns(int256 hLast) {\r\n      hLast = humidity[humidity.length -1];\r\n    }\r\n\r\n    //if float division can't be done by solidity, two return values\r\n    //function for return average value --public\r\n    \r\n    function temperatureLastVal() public view returns(int256 tLast) { \r\n\t\t  tLast = temperature[temperature.length -1];\r\n    }\r\n    //return average humidity value\r\n    function humidityAvgVal() public view returns(int256 hAvg, uint256 numOfRecords) { \r\n      uint i = 0;\r\n      hAvg = 0;\r\n      for(i=0; i<humidity.length; i++){\r\n        hAvg +=humidity[i];\r\n      }\r\n      numOfRecords = humidity.length;\r\n    }\r\n\r\n    //return average temperature value\r\n    function temperatureAvgVal() public view returns(int256 tAvg, uint256 numOfRecords) {  \r\n\t\tuint i = 0; \r\n    tAvg = 0;\r\n    for(i=0; i<temperature.length; i++){\r\n      tAvg +=temperature[i];\r\n    }\r\n      numOfRecords = temperature.length;\r\n}\r\n\r\n// function deleteElement(uint index) public {\r\n//     if (index >= temperature.length) return;\r\n\r\n//     temperature[index] = temperature[temperature.length - 1];\r\n//     temperature.pop();\r\n// }\r\n\r\n}",
  "sourcePath": "C:\\Users\\vera_\\OneDrive\\\\ceid_stuff\\diplomatiki_stuff\\sensors_test_13_9\\contracts\\Sensors.sol",
  "compiler": {
    "name": "solc",
    "version": "0.8.17+commit.8df45f5f.Emscripten.clang"
  },
  "schemaVersion": "3.4.11",
  "updatedAt": "2023-10-06T12:55:15.389Z",
  "networkType": "ethereum",
  "devdoc": {
    "kind": "dev",
    "methods": {},
    "version": 1
  },
  "userdoc": {
    "kind": "user",
    "methods": {},
    "version": 1
  }
}